:100000000C9440000C9452000C9452000C9452003A
:100010000C9452000C9452000C9452000C949400D6
:100020000C949E000C9452000C9452000C945E00B0
:100030000C9452000C9452000C9452000C945200F8
:100040000C9452000C9452000C9452000C949A019F
:100050000C945200DF00E100E300E500E700E90056
:10006000F600F600F600F600F600F600F600F600E0
:10007000F600F600EB00ED00EF00F100F300F500F4
:1000800011241FBECFE5D8E0DEBFCDBF10E0A0E653
:10009000B0E001C01D92AC37B107E1F70E947F02CA
:1000A0000C9499020C94000083B7856083BF12BE44
:1000B00089B7816089BF1092600008951F920F92E6
:1000C0000FB60F9211248F93809161008F5F809300
:1000D000610080916100813019F48AE782BF05C018
:1000E00081E080936000109261008F910F900FBEAD
:1000F0000F901F9018951DBC1CBC82EA8FBD81E13A
:100100008EBD8FEF90E097BD86BD80E590E09BBDF2
:100110008ABD99BD88BD89B7837C89BF84B38C6053
:1001200084BBAA9AAB9808951F920F920FB60F92B4
:1001300011240F900FBE0F901F9018951F920F92D1
:100140000FB60F9211240F900FBE0F901F901895AD
:1001500094E6960F993CD0F494E6980F993CB0F44D
:1001600094B39C6094BB181614F4AA9802C0AA9A7F
:100170008195161614F4AB9802C0AB9A6195660F80
:100180006ABD880F88BD81E090E0089580E090E02E
:10019000089584B3806784BB87B3836887BB089561
:1001A00090E1699FB0011124862B90E0FC0131970A
:1001B000E631F105D8F4E65DFF4F0C949302AC985C
:1001C0000895AD980895AE980895C7980895C19878
:1001D0000895C0980895AC9A0895AD9A0895AE9A7E
:1001E0000895C79A0895C19A0895C09A0895CF9323
:1001F000DF93C0E0D0E06091770070E08C2F0C2E90
:1002000002C0759567950A94E2F7617077278F5F52
:100210000E94D0002196C730D10569F76091760021
:1002200080917500DF91CF910C94A80027B398B30B
:10023000B898C09888E08A95F1F780916E00B09BDD
:1002400002C0826001C08D7F80936E0027BB98BB87
:10025000089524B395B3A698AE9888E08A95F1F7EF
:1002600080916E00B69B02C0816001C08E7F80933A
:100270006E0024BB95BB08951092700010926F0021
:1002800008950E9429010C94160111B890E290B9CA
:10029000816082B985EC86BF10927900089585E669
:1002A00090917900992349F0815039F0EFECF7E013
:1002B0003197F1F700C00000F3CF0895CF93DF939B
:1002C0001F92CDB7DEB789830E944F019AEA9093BF
:1002D000780010927A00898180937B0081E080937E
:1002E000790085EE86BF0F90DF91CF910895CF936F
:1002F000DF931F92CDB7DEB789830E944F019BEA3F
:100300009093780010927A00898180937B0081E03D
:100310008093790085EE86BF0F90DF91CF9108958D
:1003200085EC86BF089585ED86BF1092790008950B
:100330000C94F7001F920F920FB60F9211242F9377
:100340003F934F935F936F937F938F939F93AF935D
:10035000BF93EF93FF9381B1887F883609F447C03C
:1003600048F5883309F4AAC0B8F4803109F470C0A4
:1003700060F4883009F0B0C081E080937900109279
:100380006200809178008E7F84C0883109F468C053
:10039000883209F468C0A0C0803509F47CC020F41C
:1003A000803409F48BC098C0883509F48AC080363F
:1003B000F1F092C0803AC9F158F48837C1F018F4CE
:1003C0008037A9F089C08038D1F08039C1F084C06D
:1003D000883B91F128F4883A79F1803B69F17CC03F
:1003E000803C09F46BC0883C09F468C075C081E0AA
:1003F0008093790095EC96BF809363006FC08091E5
:100400006300882331F083B180936200109263000F
:1004100055C0E091620081E08E0F8093620083B14D
:10042000F0E0EB58FF4F808349C01092790085ECD3
:1004300086BF0E94F70052C081E080937900E0916E
:1004400062008E0F80936200F0E0E259FF4F20C0FF
:100450008091780083B985EC86BF109262003EC01F
:1004600080917A0016C08091780080FF02C085EEEE
:1004700026C09091620080917B00981768F5E0910A
:10048000620081E08E0F80936200F0E0EB58FF4F36
:10049000808183B913C0E091620081E08E0F809368
:1004A000620083B1F0E0E259FF4F808390916200D7
:1004B00080917B00981710F085E801C085EC86BF1D
:1004C0000DC0E091620081E08E0F8093620083B1E5
:1004D000F0E0E259FF4F80830E949301FF91EF917A
:1004E000BF91AF919F918F917F916F915F914F914C
:1004F0003F912F910F900FBE0F901F901895F89479
:100500000E947B000E94C9008AEA0E9445010E9465
:1005100054007894809160008130E1F7109260007F
:100520000E944101F7CFEE0FFF1F0590F491E02DDF
:060530000994F894FFCFCE
:00000001FF
