:100000000C9440000C9452000C9452000C9452003A
:100010000C9452000C9452000C9452000C94C600A4
:100020000C94D0000C9452000C9452000C9490004C
:100030000C9452000C9452000C9452000C945200F8
:100040000C9452000C9452000C9452000C945200E8
:100050000C9452006F0171017301750177017901F0
:100060008601860186018601860186018601860158
:10007000860186017B017D017F018101830185016C
:1000800011241FBECFE5D8E0DEBFCDBF10E0A0E653
:10009000B0E001C01D92AA36B107E1F70E94D0017D
:1000A0000C94EB010C9400008091620081FF16C05B
:1000B00061E081E00E94600160E082E00E946001F6
:1000C00061E083E00E94600160E084E00E946001E2
:1000D00061E085E00E94600160E015C060E081E0C1
:1000E0000E94600161E082E00E94600160E083E0C4
:1000F0000E94600161E084E00E94600160E085E0B0
:100100000E94600161E086E00C94600183B7856025
:1001100083BF12BE89B7816089BF109260000895C5
:100120001F920F920FB60F9211248F93809161004E
:100130008F5F8093610080916100813019F48AE7BC
:1001400082BF05C081E080936000109261008F91B2
:100150000F900FBE0F901F9018951DBC1CBC82EA1B
:100160008FBD81E18EBD8FEF90E097BD86BD80E5AC
:1001700090E09BBD8ABD99BD88BD89B7837C89BF4E
:1001800084B38C6084BBAA9AAB9808951F920F9297
:100190000FB60F9211240F900FBE0F901F9018955D
:1001A0001F920F920FB60F9211240F900FBE0F9057
:1001B0001F90189594E6960F993CD0F494E6980F0A
:1001C000993CB0F494B39C6094BB181614F4AA98AC
:1001D00002C0AA9A8195161614F4AB9802C0AB9A85
:1001E0006195660F6ABD880F88BD81E090E0089533
:1001F00080E090E00895282F332727FD3095E62FE3
:10020000FF27E7FDF095C90116161CF42E1B3F0BC6
:1002100002C08E0F9F1F429F602D1124489F802D8A
:1002200011240C94DA00682F61950C94DA0060E0D8
:1002300080E00C94DA006EEC8CE90E94DA002FEF7B
:100240008DE399E4215080409040E1F700C0000028
:100250006CE98EEC0E94DA002FEF8DE399E42150D7
:1002600080409040E1F700C000000E9417012FEF8E
:100270008DE399E4215080409040E1F700C00000F8
:1002800084E60E9413012FEF8DE399E42150804012
:100290009040E1F700C0000082E30E9413012FEFBD
:1002A0008DE399E4215080409040E1F700C00000C8
:1002B000089584B3806784BB87B3836887BB089540
:1002C00090E1699FB0011124862B90E0FC013197E9
:1002D000E631F105D8F4E65DFF4F0C94E501AC98EA
:1002E0000895AD980895AE980895C7980895C19857
:1002F0000895C0980895AC9A0895AD9A0895AE9A5D
:100300000895C79A0895C19A0895C09A08950F93C1
:100310001F93CF93DF938C01C0E0D0E0F801678199
:1003200070E00C2E02C0759567950A94E2F7617033
:1003300077278C2F8F5F0E9460012196C730D105EF
:1003400069F7DF91CF911F910F91089527B398B36B
:10035000B898C09888E08A95F1F780916200B09BC8
:1003600002C0826001C08D7F8093620027BB98BB72
:10037000089524B395B3A698AE9888E08A95F1F7CE
:1003800080916200B69B02C0816001C08E7F809325
:10039000620024BB95BB08950E94B9010C94A6018C
:1003A000F8940E94AD000E9459010E948600789442
:1003B0000E94170180916000813021F4109260004A
:1003C0000E94CC010E945400F5CFEE0FFF1F059054
:0A03D000F491E02D0994F894FFCF9A
:00000001FF
