:100000000C942A000C9434000C9434000C943400AA
:100010000C9434000C9434000C9434000C944F0075
:100020000C9459000C9434000C9434000C9434005B
:100030000C9434000C9434000C9434000C94340070
:100040000C9434000C9434000C9434000C94340060
:100050000C94340011241FBECFE5D8E0DEBFCDBF25
:100060000E94ED000C94F6000C9400001DBC1CBC1A
:1000700082EA8FBD81E18EBD8FEF90E097BD86BD96
:1000800080E590E09BBD8ABD99BD88BD89B7837C22
:1000900089BF84B38C6084BBAA9AAB9808951F92E1
:1000A0000F920FB60F9211240F900FBE0F901F905A
:1000B00018951F920F920FB60F9211240F900FBE3A
:1000C0000F901F901895E4B3EC60E4BB019711F416
:1000D000AA9801C0AA9A6130710511F4AB9801C0C9
:1000E000AB9A293C310508F42ABD493C510508F476
:1000F00048BD08959C01CA01A901161617061CF4F3
:10010000261B370B02C0460F571FBC010C9463001F
:10011000AC011816190644F051954195510961E05A
:1001200070E08FEF9FEF04C06FEF7FEF81E090E012
:100130009A010C94630020E030E040E050E060E081
:1001400070E080E090E00C9463004FEF5FEF64E6B6
:1001500070E088EC90E00E947A002FEF8DE399E444
:10016000215080409040E1F700C000004FEF5FEF6A
:100170006CE97FEF88EC90E00E947A002FEF8DE32E
:1001800099E4215080409040E1F700C000000E94B7
:100190009B002FEF8DE399E4215080409040E1F7E0
:1001A00000C0000088EC90E00E9488002FEF8DE3F3
:1001B00099E4215080409040E1F700C0000084E6BF
:1001C00090E00E9488002FEF8DE399E42150804059
:1001D0009040E1F700C000000895F8940E943600B6
:1001E00078940E949B000E94A500FDCFF894FFCF59
:00000001FF
