:100000000C942A000C943C000C943C000C943C0092
:100010000C943C000C943C000C943C000C94960016
:100020000C94A0000C943C000C943C000C944800F0
:100030000C943C000C943C000C943C000C943C0050
:100040000C943C000C943C000C943C000C94B701C4
:100050000C943C0011241FBECFE5D8E0DEBFCDBF1D
:1000600010E0A0E6B0E001C01D92AC37B107E1F7A7
:100070000E9465000C94C5020C94000083B7856053
:1000800083BF12BE89B7816089BF10926100089555
:100090001F920F920FB60F9211248F9380916000E0
:1000A0008F5F8093600080916000813019F48AE74F
:1000B00082BF05C081E080936100109260008F9143
:1000C0000F900FBE0F901F901895F8940E947D001E
:1000D0000E94D7008AEA0E946F010E943E0080E0E1
:1000E00060E00E94AA007894809161008130E1F77D
:1000F000109261000E944A01F7CF1DBC1CBC82EA2D
:100100008FBD81E18EBD8FEF90E097BD86BD80E50C
:1001100090E09BBD8ABD99BD88BD89B7837C89BFAE
:1001200084B38C6084BBAA9AAB9808951F920F92F7
:100130000FB60F9211240F900FBE0F901F901895BD
:100140001F920F920FB60F9211240F900FBE0F90B7
:100150001F901895282F862F8C59893C20F5822FC7
:100160008C59893C00F584B38C6084BB121614F45E
:10017000AA9802C0AA9A2195161614F4AB9802C048
:10018000AB9A6195862F992787FD9095880F991FC7
:100190008ABD822F992787FD9095880F991F88BD6A
:1001A00021E030E002C020E030E0C901089584B3CE
:1001B000806784BB87B3836887BB08956295607F3F
:1001C000682B663051F1673070F4633001F16430B0
:1001D00028F46130C1F0623069F517C06430C9F0AD
:1001E000653041F518C06331F1F0643128F46131B4
:1001F000B1F06231F9F415C06531C9F06531A8F08C
:100200006631C1F416C0AC980895AD980895AE98C3
:100210000895C7980895C1980895C0980895AC9A14
:100220000895AD9A0895AE9A0895C79A0895C19A0F
:100230000895C09A089527B398B3B898C09888E0F5
:100240008A95F1F7B09B04C080916E00826003C074
:1002500080916E008D7F80936E0027BB98BB0895C0
:1002600024B395B3A698AE9888E08A95F1F7B69B2B
:1002700004C080916E00816003C080916E008E7F0B
:1002800080936E0024BB95BB08951092700010926D
:100290006F0008950E9430010E941B010895CF93C2
:1002A000DF93C0E0D0E06091770070E00C2E02C0D8
:1002B000759567950A94E2F761709E012F5F822F12
:1002C0000E94DE002196C730D10569F78091750044
:1002D000609176000E94AA00DF91CF91089511B835
:1002E00090E290B9816082B985EC86BF1092790066
:1002F000089524E640ED57E006C0222341F0215046
:10030000CA010197F1F7809179008823B1F7089528
:100310001F93182F0E9479018AEA80937800109227
:100320007A0010937B0081E08093790085EE86BF90
:100330001F9108951F93182F0E9479018BEA8093D3
:10034000780010927A0010937B0081E0809379000E
:1003500085EE86BF1F91089585EC86BF089585EDD3
:1003600086BF1092790008950E944F0108951F9250
:100370000F920FB60F9211242F933F934F935F93D9
:100380006F937F938F939F93AF93BF93EF93FF935D
:1003900081B190E0887F90708836910509F463C040
:1003A000893691057CF58833910509F4CBC08933F2
:1003B00091059CF48031910509F48DC0813191053E
:1003C00024F4089709F0CCC07DC08831910509F468
:1003D0008AC0889709F0C4C08AC08035910509F4A5
:1003E0009EC0813591052CF48034910509F0B8C088
:1003F000A9C08835910509F4A8C08036910509F097
:10040000AFC031C0803A910509F44BC0813A9105E3
:100410009CF48837910539F1893791052CF48037A0
:10042000910509F09DC01FC08038910521F18039E8
:10043000910509F095C01FC0883B9105C9F1893B22
:10044000910544F4883A910599F1803B910509F0B2
:1004500087C02EC0803C910509F474C0883C91058A
:1004600009F07EC06FC091E09093790085EC86BF63
:100470009093620079C080916200882331F083B14B
:1004800080936300109262005DC08091630093B11D
:10049000E82FF0E0EB58FF4F90838F5F809363006D
:1004A00051C01092790085EC86BF0E944F015CC05C
:1004B00081E08093790090916300E92FF0E0E259A8
:1004C000FF4F27C081E080937900109263008091F4
:1004D00078008E7F0AC08091780083B985EC86BF52
:1004E0001092630041C080917A0083B92BC0809143
:1004F000780080FF02C085EE26C090916300809155
:100500007B00981768F590916300E92FF0E0EB58B5
:10051000FF4F808183B99F5F9093630013C08091E8
:10052000630093B1E82FF0E0E259FF4F90838F5FB3
:10053000809363009091630080917B00981710F086
:1005400085E801C085EC86BF0FC08091630093B140
:10055000E82FF0E0E259FF4F90838F5F80936300B4
:1005600085ED86BF10927900FF91EF91BF91AF9119
:100570009F918F917F916F915F914F913F912F91BB
:0E0580000F900FBE0F901F901895F894FFCFAC
:00000001FF
