:100000000C942A000C943C000C943C000C943C0092
:100010000C943C000C943C000C943C000C94630049
:100020000C946D000C943C000C943C000C943C002F
:100030000C943C000C943C000C943C000C943C0050
:100040000C943C000C943C000C943C000C943C0040
:100050000C943C0011241FBECFE5D8E0DEBFCDBF1D
:1000600010E0A0E6B0E001C01D92A336B107E1F7B1
:100070000E9441000C941B010C940000A49AAC98BF
:100080000895F8940E944A0078940E940E01A49A60
:10009000AC98FDCF1DBC1CBC82EA8FBD81E18EBD3A
:1000A0008FEF90E097BD86BD80E590E09BBD8ABD57
:1000B00099BD88BD89B7837C89BF84B38C6084BBBC
:1000C000AA9AAB9808951F920F920FB60F9211241F
:1000D0000F900FBE0F901F9018951F920F920FB6A2
:1000E0000F9211240F900FBE0F901F901895FC01D6
:1000F000293C3105B0F4493C510598F484B38C6037
:1001000084BB319711F4AA9801C0AA9A6130710595
:1001100011F4AB9801C0AB9A2ABD48BD21E030E094
:1001200002C020E030E0C901089580E090E060E086
:1001300070E040E050E020E030E00E947700089559
:100140009C01181619062CF481E090E06FEF7FEF08
:1001500007C0309521953F4F8FEF9FEF61E070E032
:10016000A9010E9477000895FA01161617062CF4CB
:100170009C01261B370BAC0104C0AB01480F591F73
:100180009C01CF01BF010E947700089588EC90E0A8
:1001900064E670E04FEF5FEF0E94B40080E395E704
:1001A00028EC30E0F9013197F1F70197D9F788ECA5
:1001B00090E06CE97FEF4FEF5FEF0E94B40080E3C7
:1001C00095E728EC30E0F9013197F1F70197D9F77D
:1001D0000E94950080E395E728EC30E0F901319723
:1001E000F1F70197D9F788EC90E00E94A00080E336
:1001F00095E728EC30E0F9013197F1F70197D9F74D
:1002000084E690E00E94A00080E395E728EC30E0CF
:10021000F9013197F1F70197D9F7089580916000BE
:1002200082608E7F8093600080EB94E09093620008
:0A023000809361000895F894FFCF59
:00000001FF
