:100000000C942A000C9447000C9447000C94470071
:100010000C9447000C9447000C9447000C94A600E5
:100020000C94B0000C9447000C9447000C945300BF
:100030000C9447000C9447000C9447000C94470024
:100040000C9447000C9447000C9447000C94010258
:100050000C94470011241FBECFE5D8E0DEBFCDBF12
:1000600011E0A8E6B1E001C01D92A238B107E1F7A6
:1000700011E0A0E6B0E0E4E1F2E102C005900D92EB
:10008000A836B107D9F70E9470000C9408090C94A7
:10009000000083B7856083BF12BE89B7816089BFC6
:1000A0001092690108951F920F920FB60F921124BA
:1000B0008F93809168018F5F8093680180916801C0
:1000C000813019F48AE782BF05C081E0809369011D
:1000D000109268018F910F900FBE0F901F9018958E
:1000E0001F93F8940E94E7000E948F008AEA0E9402
:1000F000B9010E94490080E060E00E94BA00789453
:1001000010E0809169018130E1F7109269011827B0
:1001100087E0612F0E94EE000E949201F2CF1DBC89
:100120001CBC82EA8FBD81E18EBD8FEF90E097BD50
:1001300086BD1BBC1ABC19BC18BC89B7837C89BF9F
:1001400084B38C6084BBAA9AAB9808951F920F92D7
:100150000FB60F9211240F900FBE0F901F9018959D
:100160001F920F920FB60F9211240F900FBE0F9097
:100170001F901895282F862F8C59893C20F5822FA7
:100180008C59893C00F584B38C6084BB121614F43E
:10019000AA9802C0AA9A2195161614F4AB9802C028
:1001A000AB9A6195862F992787FD9095880F991FA7
:1001B0008ABD822F992787FD9095880F991F88BD4A
:1001C00021E030E002C020E030E0C901089584B3AE
:1001D000806784BB87B3836987BB08956295607F1E
:1001E000682B673071F1683070F4633011F164305E
:1001F00028F46130D1F0623099F519C06530E9F02A
:100200006630E8F418C0643121F1653138F46231A8
:10021000E1F06331E0F4613119F515C06631E9F0C0
:100220006631C8F06731E1F41AC0AC980895AD9812
:100230000895AE980895C7980895C1980895C098F4
:100240000895C4980895AC9A0895AD9A0895AE9A09
:100250000895C79A0895C19A0895C09A0895C49AB6
:10026000089537B328B3B898C0988AE18A95F1F712
:10027000B09B08C080917501982F969590959170CC
:10028000826007C080917501982F96959095917026
:100290008D7F8093750137BB28BB892F089534B3B8
:1002A00025B3A698AE988AE18A95F1F79E9B07C080
:1002B00080917501982F90959170816006C0809112
:1002C0007501982F909591708E7F8093750134BB46
:1002D00025BB892F089510927A0108953E9A329A8B
:1002E000379A87B1876087B986B1806586B9349BB4
:1002F000FECF64B175B16855724080E090E00E9415
:10030000630623EC35EF48E25FE30E94E50420E05A
:1003100030E040E85FE30E94B8040E940F0360935E
:10032000780108950E944F010E9431010E946E01E0
:100330000895CF93DF93C0E0D0E060917D0170E03D
:100340000C2E02C0759567950A94E2F761709E01C4
:100350002F5F822F0E94EE002196C630D10569F7EB
:1003600080917B0160917C010E94BA00DF91CF9166
:10037000089511B890E290B9816082B985EC86BF8A
:1003800010927F01089524E640ED57E006C0222335
:1003900041F02150CA010197F1F780917F01882334
:1003A000B1F708951F93182F0E94C3018AEA809322
:1003B0007E01109280011093810181E080937F0182
:1003C00085EE86BF1F9108951F93182F0E94C301C9
:1003D0008BEA80937E01109280011093810181E06D
:1003E00080937F0185EE86BF1F91089585EC86BFBF
:1003F000089585ED86BF10927F0108950E949901AE
:1004000008951F920F920FB60F9211242F933F93CE
:100410004F935F936F937F938F939F93AF93BF930C
:10042000EF93FF9381B190E0887F907088369105BB
:1004300009F463C0893691057CF58833910509F488
:10044000CBC0893391059CF48031910509F48DC0AE
:100450008131910524F4089709F0CCC07DC0883122
:10046000910509F48AC0889709F0C4C08AC0803514
:10047000910509F49EC0813591052CF480349105D5
:1004800009F0B8C0A9C08835910509F4A8C0803624
:10049000910509F0AFC031C0803A910509F44BC015
:1004A000813A91059CF48837910539F18937910596
:1004B0002CF48037910509F09DC01FC0803891054C
:1004C00021F18039910509F095C01FC0883B910545
:1004D000C9F1893B910544F4883A910599F1803B33
:1004E000910509F087C02EC0803C910509F474C0C5
:1004F000883C910509F07EC06FC091E090937F0128
:1005000085EC86BF90936A0179C080916A01882347
:1005100031F083B180936B0110926A015DC08091CC
:100520006B0193B1E82FF0E0E558FE4F90838F5FA9
:1005300080936B0151C010927F0185EC86BF0E94B1
:1005400099015CC081E080937F0190916B01E92F5C
:10055000F0E0EB58FE4F27C081E080937F011092BE
:100560006B0180917E018E7F0AC080917E0183B9EC
:1005700085EC86BF10926B0141C08091800183B9E8
:100580002BC080917E0180FF02C085EE26C0909135
:100590006B0180918101981768F590916B01E92FAB
:1005A000F0E0E558FE4F808183B99F5F90936B0127
:1005B00013C080916B0193B1E82FF0E0EB58FE4F30
:1005C00090838F5F80936B0190916B01809181018B
:1005D000981710F085E801C085EC86BF0FC08091A8
:1005E0006B0193B1E82FF0E0EB58FE4F90838F5FE3
:1005F00080936B0185ED86BF10927F01FF91EF9193
:10060000BF91AF919F918F917F916F915F914F912A
:100610003F912F910F900FBE0F901F901895EF9262
:10062000FF920F931F937B018C0120E030E040E0AC
:100630005FE40E94DF0588238CF0C801B70120E049
:1006400030E040E05FE40E9487040E940F069B01B7
:10065000AC01205030404040504806C0C801B701AE
:100660000E940F069B01AC01B901CA011F910F91B5
:10067000FF90EF900895A0E0B0E0E1E4F3E00C9487
:10068000D108DC012B01FA019C91923008F439C1A8
:10069000EB018881823008F433C1943069F48430EE
:1006A00009F02FC111969C9111978981981709F42F
:1006B00028C1A0E6B0E025C1843009F421C1823010
:1006C000A9F4923009F01DC19A01AD0188E0EA0158
:1006D0000990AE01E90109929E018150C1F7E20142
:1006E000898111969C918923818308C1923009F4F4
:1006F00007C112962D903C901397EB018A819B8144
:100700001496AD90BD90CD90DC901797EC80FD8055
:100710000E811F819101281B390BB90137FF04C0DD
:1007200066277727621B730B603271050CF061C07E
:10073000121613066CF537014801062E04C0969474
:100740008794779467940A94D2F721E030E040E0F0
:1007500050E004C0220F331F441F551F6A95D2F783
:1007600021503040404050402E213F214023512312
:10077000211531054105510521F021E030E040E02F
:1007800050E079018A01E628F728082919293CC098
:10079000232BD1F1260E371E35014601062E04C04B
:1007A00096948794779467940A94D2F721E030E086
:1007B00040E050E004C0220F331F441F551F6A95CC
:1007C000D2F721503040404050402A213B214C215B
:1007D0005D21211531054105510521F021E030E071
:1007E00040E050E059016A01A628B728C828D92856
:1007F0000BC0821593052CF01C01AA24BB246501B3
:1008000003C0EE24FF24870111969C91D20111961A
:100810008C91981709F445C0992339F0A8019701E4
:100820002A193B094C095D0906C0A60195012E193C
:100830003F09400B510B57FD08C0118233822282C1
:1008400024833583468357831DC081E081833382AF
:10085000228288279927DC01821B930BA40BB50BFE
:1008600084839583A683B7830DC0220F331F441F53
:10087000551F248335834683578382819381019753
:10088000938382832481358146815781DA01C901AE
:100890000197A109B1098F5F9F4FAF4FBF4328F365
:1008A0000BC0918333822282EA0CFB1C0C1D1D1DA0
:1008B000E482F5820683178383E080832481358177
:1008C0004681578157FF1AC0C901AA2797FDA095F5
:1008D000BA2F81709070A070B0705695479537957B
:1008E0002795822B932BA42BB52B84839583A683EA
:1008F000B78382819381019693838283DF0101C054
:10090000D201CD01CDB7DEB7E2E10C94ED08A0E253
:10091000B0E0EDE8F4E00C94DD0869837A838B8322
:100920009C832D833E834F835887E9E0EE2EF12C84
:10093000EC0EFD1ECE010196B7010E9400088E014B
:100940000F5E1F4FCE010596B8010E9400088A89EC
:1009500091E089278A8BC701B801AE01475E5F4FDE
:100960000E943B030E942B07A096E6E00C94F90836
:10097000A0E2B0E0EEEBF4E00C94DD0869837A834A
:100980008B839C832D833E834F835887F9E0EF2E22
:10099000F12CEC0EFD1ECE010196B7010E9400085D
:1009A0008E010F5E1F4FCE010596B8010E94000810
:1009B000C701B801AE01475E5F4F0E943B030E9432
:1009C0002B07A096E6E00C94F908A0E2B0E0EBEE6D
:1009D000F4E00C94D10869837A838B839C832D8304
:1009E0003E834F835887CE010196BE01675F7F4FDC
:1009F0000E940008CE010596BE016F5E7F4F0E94E7
:100A000000089985923088F089898230C8F0943046
:100A100019F4823051F404C0843029F4923081F406
:100A200080E690E0C6C0923049F420E09A858A8939
:100A3000981321E02A87CE010996BBC0823049F481
:100A400020E09A858A89981321E02A8BCE0141966D
:100A5000B0C02D843E844F8458886D887E888F88EE
:100A6000988CEE24FF248701AA24BB24650140E072
:100A700050E060E070E0E0E0F0E0C1018170907073
:100A8000892BE9F0E60CF71C081D191D9A01AB0132
:100A90002A0D3B1D4C1D5D1D80E090E0A0E0B0E004
:100AA000E614F7040805190520F481E090E0A0E0C1
:100AB000B0E0BA01A901480F591F6A1F7B1FAA0C99
:100AC000BB1CCC1CDD1C97FE08C081E090E0A0E0C0
:100AD000B0E0A82AB92ACA2ADB2A3196E032F10509
:100AE00049F0660C771C881C991C569447943794DF
:100AF0002794C3CFFA85EA892B893C898B859C850D
:100B0000280F391F2E5F3F4F17C0CA0181709070A8
:100B1000892B61F016950795F794E79480E090E0B3
:100B2000A0E0B0E8E82AF92A0A2B1B2B76956795F6
:100B3000579547952F5F3F4F77FDE7CF0CC0440F88
:100B4000551F661F771F17FD4160EE0CFF1C001F2D
:100B5000111F21503040403090E0590790E0690764
:100B600090E4790760F32B8F3C8FDB01CA018F770C
:100B70009070A070B07080349105A105B10561F44A
:100B800047FD0AC0E114F1040105110529F0405C9C
:100B90005F4F6F4F7F4F40781A8EFE1711F081E044
:100BA0008A8F4D8F5E8F6F8F78A383E0898FCE0100
:100BB00049960E942B07A096E2E10C94ED08A8E16B
:100BC000B0E0E5EEF5E00C94DD0869837A838B8371
:100BD0009C832D833E834F83588789E0E82EF12C38
:100BE000EC0EFD1ECE010196B7010E9400088E0199
:100BF0000F5E1F4FCE010596B8010E94000889853F
:100C0000823040F08989823028F0C701B8010E9403
:100C1000780801C08FEF6896E6E00C94F908ACE024
:100C2000B0E0E5E1F6E00C94E10869837A838B8318
:100C30009C83CE010196BE016B5F7F4F0E9400082E
:100C40008D81823061F1823050F1843021F48E81C7
:100C5000882351F12EC02F81388537FD20C06E8149
:100C60002F3131051CF06623F9F023C08EE190E0AE
:100C7000821B930B29853A854B855C8504C056956C
:100C80004795379527958A95D2F76623B1F0509509
:100C90004095309521953F4F4F4F5F4F0EC020E05C
:100CA00030E040E050E009C02FEF3FEF4FEF5FE74B
:100CB00004C020E030E040E050E8B901CA012C96C1
:100CC000E2E00C94FD08A8E0B0E0E9E6F6E00C9460
:100CD000D9087B018C01611571058105910519F415
:100CE00082E0898360C083E089838EE1C82ED12CA5
:100CF000DC82CB82ED82FE820F831887C801B701A8
:100D00000E94DC06FC013197F7FF3BC02227332706
:100D10002E1B3F0B57016801022E04C0D694C794C6
:100D2000B794A7940A94D2F740E050E060E070E0F6
:100D300081E090E0A0E0B0E004C0880F991FAA1FF6
:100D4000BB1F2A95D2F70197A109B1098E219F21D6
:100D5000A023B1230097A105B10521F041E050E0A7
:100D600060E070E04A295B296C297D294D835E8310
:100D70006F8378878EE190E08E1B9F0B9C838B8323
:100D800012C0309781F00E2E04C0EE0CFF1C001F25
:100D9000111F0A94D2F7ED82FE820F831887CE1AB4
:100DA000DF0ADC82CB821A82CE0101960E942B07D9
:100DB0002896EAE00C94F508EF92FF920F931F93A8
:100DC0007B018C0180E0E81680E0F80681E00807EE
:100DD00080E0180788F48FEFE816F104010511058B
:100DE00031F028F088E090E0A0E0B0E017C080E0AB
:100DF00090E0A0E0B0E012C080E0E81680E0F806E5
:100E000080E0080781E0180728F088E190E0A0E082
:100E1000B0E004C080E190E0A0E0B0E020E230E08B
:100E200040E050E0281B390B4A0B5B0B04C01695C1
:100E30000795F794E7948A95D2F7F701E859FF4FA1
:100E40008081281B310941095109C9011F910F9166
:100E5000FF90EF900895DF92EF92FF920F931F9310
:100E6000FC01E480F58006811781D1808081823089
:100E700048F480E090E0A0E1B0E0E82AF92A0A2BEB
:100E80001B2BA5C0843009F49FC0823021F4EE24CE
:100E9000FF24870105C0E114F1040105110519F4CF
:100EA000E0E0F0E096C0628173819FEF62387907DD
:100EB0000CF05BC022E83FEF261B370B2A313105CF
:100EC0002CF020E030E040E050E02AC0B801A7015B
:100ED000022E04C076956795579547950A94D2F7E8
:100EE00081E090E0A0E0B0E004C0880F991FAA1F45
:100EF000BB1F2A95D2F70197A109B1098E219F2125
:100F0000A023B1230097A105B10521F081E090E075
:100F1000A0E0B0E09A01AB01282B392B4A2B5B2BC8
:100F2000DA01C9018F779070A070B070803491059C
:100F3000A105B10539F427FF09C0205C3F4F4F4F91
:100F40005F4F04C0215C3F4F4F4F5F4FE0E0F0E048
:100F50002030A0E03A07A0E04A07A0E45A0710F0CA
:100F6000E1E0F0E079018A0127C06038710564F59D
:100F7000FB01E158FF4FD801C7018F779070A07037
:100F8000B07080349105A105B10539F4E7FE0DC0BC
:100F900080E490E0A0E0B0E004C08FE390E0A0E047
:100FA000B0E0E80EF91E0A1F1B1F17FF05C01695BB
:100FB0000795F794E794319687E016950795F7948F
:100FC000E7948A95D1F705C0EE24FF248701EFEF5F
:100FD000F0E06E2F679566276795902F9F77D794DF
:100FE000DD24D7948E2F8695492F462B582F5D29C7
:100FF000B701CA011F910F91FF90EF90DF90089504
:10100000FC01DB01408151812281622F6F7770E00A
:10101000221F2227221F9381892F880F822B282F9E
:1010200030E0991F9927991F11969C9311972115CC
:101030003105A9F5411551056105710511F482E0ED
:1010400037C082E89FEF13969C938E9312979A0174
:10105000AB0167E0220F331F441F551F6A95D1F77C
:1010600083E08C930DC0220F331F441F551F12962F
:101070008D919C911397019713969C938E93129741
:10108000203080E0380780E0480780E4580758F3B4
:1010900014962D933D934D935C93179708952F3F8E
:1010A000310579F4411551056105710519F484E0A4
:1010B0008C93089564FF03C081E08C9312C01C924E
:1010C00010C02F57304013963C932E93129783E015
:1010D0008C9387E0440F551F661F771F8A95D1F7C1
:1010E000706414964D935D936D937C931797089558
:1010F0001F93DC01FB019C91923008F447C0808172
:10110000823008F443C0943051F411961C9184301D
:1011100099F58181682F70E0611B71093FC08430AF
:1011200021F0923031F48230B9F18181882389F144
:101130002DC011961C9111978230F1F08181181702
:10114000D9F412962D913C91139782819381821745
:10115000930794F028173907BCF014968D919D9150
:101160000D90BC91A02D248135814681578128178F
:1011700039074A075B0718F4112341F00AC08217A8
:101180009307A407B50740F4112319F061E070E05C
:1011900005C06FEF7FEF02C060E070E0CB011F91F0
:1011A00008952F923F924F925F926F927F928F920B
:1011B0009F92AF92BF92CF92DF92EF92FF920F93E6
:1011C0001F93CF93DF93CDB7DEB7CA1BDB0B0FB6F0
:1011D000F894DEBF0FBECDBF09942A8839884888AD
:1011E0005F846E847D848C849B84AA84B984C88443
:1011F000DF80EE80FD800C811B81AA81B981CE0F3A
:10120000D11D0FB6F894DEBF0FBECDBFED0108951E
:04121000F894FFCF80
:1012140000000000000000000001020203030303B9
:101224000404040404040404050505050505050572
:101234000505050505050505060606060606060652
:10124400060606060606060606060606060606063A
:101254000606060606060606070707070707070722
:10126400070707070707070707070707070707070A
:1012740007070707070707070707070707070707FA
:1012840007070707070707070707070707070707EA
:1012940007070707070707070808080808080808D2
:1012A40008080808080808080808080808080808BA
:1012B40008080808080808080808080808080808AA
:1012C400080808080808080808080808080808089A
:1012D400080808080808080808080808080808088A
:1012E400080808080808080808080808080808087A
:1012F400080808080808080808080808080808086A
:101304000808080808080808080808080808080859
:08131400080808080808080891
:00000001FF
