:100000000C942A000C943C000C943C000C943C0092
:100010000C943C000C943C000C943C000C94980014
:100020000C94A2000C943C000C943C000C943C00FA
:100030000C943C000C943C000C943C000C943C0050
:100040000C943C000C943C000C943C000C943C0040
:100050000C943C0011241FBECFE5D8E0DEBFCDBF1D
:1000600010E0A0E6B0E001C01D92A336B107E1F7B1
:100070000E9472000C94B6010C9400008091600004
:1000800081FF17C081E061E00E944A0182E060E0E8
:100090000E944A0183E061E00E944A0184E060E03E
:1000A0000E944A0185E061E00E944A0186E060E02A
:1000B00016C081E060E00E944A0182E061E00E9497
:1000C0004A0183E060E00E944A0184E061E00E940E
:1000D0004A0185E060E00E944A0186E061E00E94FA
:1000E0004A010895F8940E947F0078940E94430189
:1000F0000E94CA000E94B1010E943E00FBCF1DBCBD
:100100001CBC82EA8FBD81E18EBD8FEF90E097BD70
:1001100086BD80E590E09BBD8ABD99BD88BD89B74D
:10012000837C89BF84B38C6084BBAA9AAB98089502
:100130001F920F920FB60F9211240F900FBE0F90C7
:100140001F9018951F920F920FB60F9211240F90C7
:100150000FBE0F901F901895FC01293C3105B0F49B
:10016000493C510598F484B38C6084BB319711F4F9
:10017000AA9801C0AA9A6130710511F4AB9801C028
:10018000AB9A2ABD48BD21E030E002C020E030E05B
:10019000C901089580E090E060E070E040E050E048
:1001A00020E030E00E94AC0008959C01181619066A
:1001B0002CF481E090E06FEF7FEF07C03095219540
:1001C0003F4F8FEF9FEF61E070E0A9010E94AC000C
:1001D0000895FA01161617062CF49C01261B370BFE
:1001E000AC0104C0AB01480F591F9C01CF01BF01F6
:1001F0000E94AC00089588EC90E064E670E04FEF58
:100200005FEF0E94E90080E395E728EC30E0F90118
:100210003197F1F70197D9F788EC90E06CE97FEF1F
:100220004FEF5FEF0E94E90080E395E728EC30E0B4
:10023000F9013197F1F70197D9F70E94CA0080E3DD
:1002400095E728EC30E0F9013197F1F70197D9F7FC
:1002500088EC90E00E94D50080E395E728EC30E040
:10026000F9013197F1F70197D9F784E690E00E9400
:10027000D50080E395E728EC30E0F9013197F1F7FC
:100280000197D9F7089584B3806784BB87B38368E7
:1002900087BB08956295607F682B663051F16730A7
:1002A00070F4633001F1643028F46130C1F06230E1
:1002B00069F517C06430C9F0653041F518C0633185
:1002C000F1F0643128F46131B1F06231F9F415C014
:1002D0006531C9F06531A8F06631C1F416C0AC983B
:1002E0000895AD980895AE980895C7980895C19857
:1002F0000895C0980895AC9A0895AD9A0895AE9A5D
:100300000895C79A0895C19A0895C09A089527B389
:1003100098B3B898C09888E08A95F1F7B09B04C06C
:1003200080916000826003C0809160008D7F809327
:10033000600027BB98BB089524B395B3A698AE98E8
:1003400088E08A95F1F7B69B04C0809160008160D7
:1003500003C0809160008E7F8093600024BB95BBBA
:1003600008950E949C010E9487010895F894FFCF90
:00000001FF
