:100000000C942A000C9434000C9434000C943400AA
:100010000C9434000C9434000C9434000C944F0075
:100020000C9459000C9434000C9434000C9434005B
:100030000C9434000C9434000C9434000C94340070
:100040000C9434000C9434000C9434000C94340060
:100050000C94340011241FBECFE5D8E0DEBFCDBF25
:100060000E9490000C9495000C9400001DBC1CBCD8
:1000700082EA8FBD81E18EBD8FEF90E097BD86BD96
:1000800080E590E09BBD8ABD99BD88BD89B7837C22
:1000900089BF84B38C6084BBAA9AAB9808951F92E1
:1000A0000F920FB60F9211240F900FBE0F901F905A
:1000B00018951F920F920FB60F9211240F900FBE3A
:1000C0000F901F9018950895E4B3EC60E4BB01977E
:1000D00011F4AA9801C0AA9A6130710511F4AB9885
:1000E00001C0AB9A293C310508F42ABD493C5105B1
:1000F00008F448BD0895FA019C01261B370BAC019A
:10010000460F571FBF01CF010C94640020E030E080
:1001100040E050E060E070E080E090E00C9464002B
:0E012000F8940E9436007894FFCFF894FFCF39
:00000001FF
