:100000000C942A000C943C000C943C000C943C0092
:100010000C943C000C943C000C943C000C94C500E7
:100020000C94CF000C943C000C943C000C944800C1
:100030000C943C000C943C000C943C000C943C0050
:100040000C943C000C943C000C943C000C943C0040
:100050000C943C0011241FBECFE5D8E0DEBFCDBF1D
:1000600010E0A0E6B0E001C01D92AC36B107E1F7A8
:100070000E9499000C94A6010C94000083B785603F
:1000800083BF12BE89B7816089BF10926100089555
:100090001F920F920FB60F9211248F9380916000E0
:1000A0008F5F8093600080916000813019F48AE74F
:1000B00082BF05C081E080936100109260008F9143
:1000C0000F900FBE0F901F9018958091620081FFD6
:1000D00017C081E061E00E940D0182E060E00E94B3
:1000E0000D0183E061E00E940D0184E060E00E9468
:1000F0000D0185E061E00E940D0186E060E016C020
:1001000081E060E00E940D0182E061E00E940D014B
:1001100083E060E00E940D0184E061E00E940D0137
:1001200085E060E00E940D0186E061E00E940D0123
:100130000895F8940E94AC000E9406010E943E00BF
:10014000789480916100813021F4109261000E94C6
:1001500079010E946500F5CF1DBC1CBC82EA8FBDF1
:1001600081E18EBD8FEF90E097BD86BD80E590E088
:100170009BBD8ABD99BD88BD89B7837C89BF84B387
:100180008C6084BBAA9AAB9808951F920F920FB609
:100190000F9211240F900FBE0F901F9018951F9271
:1001A0000F920FB60F9211240F900FBE0F901F9059
:1001B0001895282F862F8C59893C20F5822F8C5931
:1001C000893C00F584B38C6084BB121614F4AA98A1
:1001D00002C0AA9A2195161614F4AB9802C0AB9AE5
:1001E0006195862F992787FD9095880F991F8ABD65
:1001F000822F992787FD9095880F991F88BD21E050
:1002000030E002C020E030E0C901089584B3806787
:1002100084BB87B3836887BB08956295607F682B32
:10022000663051F1673070F4633001F1643028F4C6
:100230006130C1F0623069F517C06430C9F06530D3
:1002400041F518C06331F1F0643128F46131B1F047
:100250006231F9F415C06531C9F06531A8F0663135
:10026000C1F416C0AC980895AD980895AE9808955D
:10027000C7980895C1980895C0980895AC9A0895B4
:10028000AD9A0895AE9A0895C79A0895C19A0895AF
:10029000C09A089527B398B3B898C09888E08A9513
:1002A000F1F7B09B04C080916200826003C080912E
:1002B00062008D7F8093620027BB98BB089524B3B2
:1002C00095B3A698AE9888E08A95F1F7B69B04C0DE
:1002D00080916200816003C0809162008E7F809374
:1002E000620024BB95BB08951092640010926300D5
:1002F00008950E945F010E944A01109264001092CA
:10030000630008950F931F93CF93DF938C01C0E098
:10031000D0E0F801628170E00C2E02C075956795FF
:100320000A94E2F761709E012F5F822F0E940D01F7
:100330002196C730D10569F7F801808161810E945B
:10034000D900DF91CF911F910F910895F894FFCFBD
:00000001FF
