:100000000C942A000C9434000C9434000C943400AA
:100010000C9434000C9434000C9434000C944F0075
:100020000C9459000C9434000C9434000C9434005B
:100030000C9434000C9434000C9434000C94340070
:100040000C9434000C9434000C9434000C94340060
:100050000C94340011241FBECFE5D8E0DEBFCDBF25
:100060000E94B2000C94B9000C9400001DBC1CBC92
:1000700082EA8FBD81E18EBD8FEF90E097BD86BD96
:1000800080E590E09BBD8ABD99BD88BD89B7837C22
:1000900089BF84B38C6084BBAA9AAB9808951F92E1
:1000A0000F920FB60F9211240F900FBE0F901F905A
:1000B00018951F920F920FB60F9211240F900FBE3A
:1000C0000F901F901895E4B3EC60E4BB019711F416
:1000D000AA9801C0AA9A6130710511F4AB9801C0C9
:1000E000AB9A293C310508F42ABD493C510508F476
:1000F00048BD0895FA019C01261B370BAC01460F41
:10010000571FBF01CF010C94630041E050E064E64B
:1001100070E088EC90E00E947A002FEF89E698E189
:10012000215080409040E1F700C0000041E050E0E5
:100130006CE97FEF88EC90E00E947A002FEF89E66F
:1001400098E1215080409040E1F700C00000089500
:1001500020E030E040E050E060E070E080E090E0DF
:100160000C946300F8940E94360078940E948500F5
:06017000FDCFF894FFCF63
:00000001FF
