:100000000C942A000C943C000C943C000C943C0092
:100010000C943C000C943C000C943C000C94C700E5
:100020000C94D1000C943C000C943C000C944800BF
:100030000C943C000C943C000C943C000C943C0050
:100040000C943C000C943C000C943C000C943C0040
:100050000C943C0011241FBECFE5D8E0DEBFCDBF1D
:1000600010E0A0E6B0E001C01D92A536B107E1F7AF
:100070000E9499000C94E5010C94000083B7856000
:1000800083BF12BE89B7816089BF10926100089555
:100090001F920F920FB60F9211248F9380916000E0
:1000A0008F5F8093600080916000813019F48AE74F
:1000B00082BF05C081E080936100109260008F9143
:1000C0000F900FBE0F901F9018958091620081FFD6
:1000D00017C081E061E00E94790182E060E00E9447
:1000E000790183E061E00E94790184E060E00E9490
:1000F000790185E061E00E94790186E060E016C048
:1001000081E060E00E94790182E061E00E94790173
:1001100083E060E00E94790184E061E00E9479015F
:1001200085E060E00E94790186E061E00E9479014B
:100130000895F8940E94AE000E9472010E943E0051
:1001400078940E94F90080916100813021F410922E
:1001500061000E94E0010E946500F5CF1DBC1CBC3F
:1001600082EA8FBD81E18EBD8FEF90E097BD86BDA5
:1001700080E590E09BBD8ABD99BD88BD89B7837C31
:1001800089BF84B38C6084BBAA9AAB9808951F92F0
:100190000F920FB60F9211240F900FBE0F901F9069
:1001A00018951F920F920FB60F9211240F900FBE49
:1001B0000F901F901895FC01293C3105B0F4493C83
:1001C000510598F484B38C6084BB319711F4AA98DC
:1001D00001C0AA9A6130710511F4AB9801C0AB9AC5
:1001E0002ABD48BD21E030E002C020E030E0C90176
:1001F000089580E090E060E070E040E050E020E0B2
:1002000030E00E94DB0008959C01181619062CF4BA
:1002100081E090E06FEF7FEF07C0309521953F4F71
:100220008FEF9FEF61E070E0A9010E94DB0008956D
:10023000FA01161617062CF49C01261B370BAC018D
:1002400004C0AB01480F591F9C01CF01BF010E94A0
:10025000DB00089588EC90E064E670E04FEF5FEF1C
:100260000E94180180E395E728EC30E0F90131970E
:10027000F1F70197D9F788EC90E06CE97FEF4FEF49
:100280005FEF0E94180180E395E728EC30E0F90168
:100290003197F1F70197D9F70E94F90080E395E7CC
:1002A00028EC30E0F9013197F1F70197D9F788ECA4
:1002B00090E00E94040180E395E728EC30E0F9012A
:1002C0003197F1F70197D9F784E690E00E94040195
:1002D00080E395E728EC30E0F9013197F1F70197D9
:1002E000D9F7089584B3806784BB87B3836887BBDD
:1002F00008956295607F682B663051F1673070F425
:10030000633001F1643028F46130C1F0623069F586
:1003100017C06430C9F0653041F518C06331F1F0A1
:10032000643128F46131B1F06231F9F415C06531FE
:10033000C9F06531A8F06631C1F416C0AC980895D3
:10034000AD980895AE980895C7980895C1980895F6
:10035000C0980895AC9A0895AD9A0895AE9A0895FC
:10036000C79A0895C19A0895C09A089527B398B37B
:10037000B898C09888E08A95F1F7B09B04C0809146
:100380006200826003C0809162008D7F8093620072
:1003900027BB98BB089524B395B3A698AE9888E080
:1003A0008A95F1F7B69B04C080916200816003C01A
:1003B000809162008E7F8093620024BB95BB08957C
:0E03C0000E94CB010E94B6010895F894FFCF71
:00000001FF
