:100000000C9440000C945D000C945D000C945D0019
:100010000C945D000C945D000C945D000C94D10078
:100020000C94DB000C945D000C945D000C949B0020
:100030000C945D000C945D000C945D000C945D00CC
:100040000C945D000C945D000C945D000C945D00BC
:100050000C945D007A017C017E01800182018401A3
:100060009101910191019101910191019101910100
:1000700091019101860188018A018C018E01900114
:1000800011241FBECFE5D8E0DEBFCDBF10E0A6E64D
:10009000B0E001C01D92AD37B107E1F710E0A0E676
:1000A000B0E0E0E0F9E002C005900D92A636B1079D
:1000B000D9F70E9415030C947E040C9400008091E3
:1000C000680081FF16C061E081E00E946B0160E082
:1000D00082E00E946B0161E083E00E946B0160E0BE
:1000E00084E00E946B0161E085E00E946B0160E0AA
:1000F00015C060E081E00E946B0161E082E00E9437
:100100006B0160E083E00E946B0161E084E00E948B
:100110006B0160E085E00E946B0161E086E00C9479
:100120006B0183B7856083BF12BE89B7816089BFC9
:100130001092660008951F920F920FB60F9211242D
:100140008F93809167008F5F809367008091670035
:10015000813019F48AE782BF05C081E08093660090
:10016000109267008F910F900FBE0F901F901895FF
:100170001DBC1CBC82EA8FBD81E18EBD8FEF90E07B
:1001800097BD86BD80E590E09BBD8ABD99BD88BDC9
:1001900089B7837C89BF84B38C6084BBAA9AAB98EF
:1001A00008951F920F920FB60F9211240F900FBE59
:1001B0000F901F9018951F920F920FB60F92112457
:1001C0000F900FBE0F901F90189594E6960F993CD4
:1001D000D0F494E6980F993CB0F494B39C6094BB2F
:1001E000181614F4AA9802C0AA9A8195161614F447
:1001F000AB9802C0AB9A6195660F6ABD880F88BD47
:1002000081E090E0089580E090E00895282F332762
:1002100027FD3095E62FFF27E7FDF095C90116165B
:100220001CF42E1B3F0B02C08E0F9F1F429F602DA0
:100230001124489F802D11240C94E500682F6195AE
:100240000C94E50060E080E00C94E5006EEC8CE935
:100250000E94E5002FEF8DE399E42150804090400B
:10026000E1F700C000006CE98EEC0E94E5002FEF82
:100270008DE399E4215080409040E1F700C00000F8
:100280000E9422012FEF8DE399E42150804090409D
:10029000E1F700C0000084E60E941E012FEF8DE30D
:1002A00099E4215080409040E1F700C0000082E3D3
:1002B0000E941E012FEF8DE399E421508040904071
:1002C000E1F700C00000089584B3806784BB87B362
:1002D000836887BB089590E1699FB0011124862B44
:1002E00090E0FC013197E631F105D8F4E65DFF4F6F
:1002F0000C942E03AC980895AD980895AE98089587
:10030000C7980895C1980895C0980895AC9A089523
:10031000AD9A0895AE9A0895C79A0895C19A08951E
:10032000C09A08950F931F93CF93DF938C01C0E081
:10033000D0E0F801678170E00C2E02C075956795DA
:100340000A94E2F7617077278C2F8F5F0E946B0110
:100350002196C730D10569F7DF91CF911F910F9199
:10036000089527B398B3B898C09888E08A95F1F7B4
:1003700080916800B09B02C0826001C08D7F809335
:10038000680027BB98BB089524B395B3A698AE9890
:1003900088E08A95F1F780916800B69B02C0816081
:1003A00001C08E7F8093680024BB95BB08950E9496
:1003B000C4010C94B1010F931F93CF93DF9310925C
:1003C00077001092780062E070E084E090E00E9494
:1003D00034039093730080937200C0E0D0E00091EA
:1003E0007200109173000C0F1D1F62E070E082E03C
:1003F00090E00E943403F801918380832296C830F4
:10040000D10569F7E0917200F0917300A081B1818C
:1004100083E090E011969C938E9384E190E0139694
:100420009C938E931297A281B38185E090E0119600
:100430009C938E9388EE93E013969C938E931297E1
:10044000A481B58181E090E011969C938E9384EB1A
:1004500090E013969C938E9312970680F781E02D7F
:1004600084E090E0918380838AE090E093838283AC
:10047000DF91CF911F910F91089580916B00909122
:100480006C000A9724F080916800837021F00E942C
:1004900022011092770008959B01240F351F8217C7
:1004A00093075CF4641B750B31E020E06817790753
:1004B0000CF030E0832F922F089580E090E00895B3
:1004C0006091690070916A0045E050E08091700091
:1004D000909171000E944C02892B29F00E94220108
:1004E00010927700089588EC0C941E010F931F93CF
:1004F000CF93DF93C0916B00D0916C00009174009A
:100500001091750045E050E0BE01C8010E944C0208
:10051000892B49F00E94220110927700DF91CF9140
:100520001F910F9108950C171D0710F441E001C0B1
:100530004FEF60E088ECDF91CF911F910F910C9409
:1005400006012091690030916A00280F391F30930D
:1005500071002093700081E080937700089590935C
:1005600071008093700081E080937700089520915E
:100570006B0030916C00281B390B30937500209371
:10058000740083E080937700089580917800209133
:10059000720090917300E22FF92FE80FF11DE80F20
:1005A000F11D0190F081E02D8081918182309105D3
:1005B000D1F018F4019799F008958330910519F05E
:1005C000049729F00895828193810C94B702828167
:1005D0009381909375008093740083E00BC08281B7
:1005E00093810C94A10282819381909371008093F6
:1005F000700081E08093770008950E943D02809111
:100600007700813021F038F0833019F008950C9490
:1006100060020C9476020C94C5029093750080934E
:10062000740083E0809377000895F8940E94B800E6
:100630000E9464010E9491000E94DB0178940E9454
:10064000220180916600813021F4109266000E94A0
:10065000D7010E94FD020E945F00F3CFEE0FFF1F43
:100660000590F491E02D09940F931F93CF93DF939E
:10067000869F8001879F100D969F100D1124C80141
:100680000E945003EC01009729F0A80160E070E09F
:100690000E947704CE01DF91CF911F910F910895B1
:1006A000CF93DF938230910510F482E090E0E091E7
:1006B0007B00F0917C0020E030E0A0E0B0E03097DB
:1006C00039F14081518148175907B8F04817590747
:1006D00071F482819381109729F013969C938E93E5
:1006E00012972CC090937C0080937B0027C021152B
:1006F000310531F04217530718F0A901DB0101C0A1
:10070000EF019A01BD01DF010280F381E02DD7CF17
:1007100021153105F9F0281B390B2430310580F4FF
:100720008A819B816115710521F0FB01938382838E
:1007300004C090937C0080937B00FE01329644C0FD
:10074000FE01E20FF31F8193919322503109398307
:1007500028833AC02091790030917A00232B41F40C
:10076000209162003091630030937A0020937900E9
:1007700020916000309161002115310541F42DB7C1
:100780003EB74091640050916500241B350BE09109
:100790007900F0917A00E217F307A0F42E1B3F0BCB
:1007A0002817390778F0AC014E5F5F4F24173507E3
:1007B00048F04E0F5F1F50937A0040937900819369
:1007C000919302C0E0E0F0E0CF01DF91CF91089576
:1007D000CF93DF93009709F487C0FC01329713820F
:1007E0001282C0917B00D0917C00209781F42081FF
:1007F0003181280F391F8091790090917A008217FA
:10080000930779F5F0937A00E09379006DC0DE01EB
:1008100020E030E0AE17BF0750F412964D915C9186
:1008200013979D014115510509F1DA01F3CFB38307
:10083000A28340815181840F951F8A179B0771F411
:100840008D919C911197840F951F029691838083BF
:1008500012968D919C911397938382832115310574
:1008600029F4F0937C00E0937B003EC0D9011396FD
:10087000FC93EE9312974D915D91A40FB51FEA176B
:10088000FB0779F480819181840F951F0296D9012D
:1008900011969C938E938281938113969C938E9351
:1008A0001297E0E0F0E08A819B81009719F0FE0149
:1008B000EC01F9CFCE01029628813981820F931F76
:1008C0002091790030917A002817390769F4309720
:1008D00029F410927C0010927B0002C013821282D5
:1008E000D0937A00C0937900DF91CF910895DC0115
:1008F00001C06D9341505040E0F70895F894FFCF48
:0609000000007D00200054
:00000001FF
