:100000000C942A000C943C000C943C000C943C0092
:100010000C943C000C94E4000C943C000C943C00C8
:100020000C943C000C943C000C943C000C94480054
:100030000C943C000C943C000C943C000C943C0050
:100040000C943C000C943C000C943C000C943D023D
:100050000C943C0011241FBECFE5D8E0DEBFCDBF1D
:1000600010E0A0E6B0E001C01D92AE37B107E1F7A5
:100070000E9465000C945F030C94000083B78560B8
:1000800083BF12BE89B7816089BF10926100089555
:100090001F920F920FB60F9211248F9380916000E0
:1000A0008F5F8093600080916000813019F48AE74F
:1000B00082BF05C081E080936100109260008F9143
:1000C0000F900FBE0F901F9018951F93F8940E94E9
:1000D00036010E9484008AEA0E94F5010E943E00D7
:1000E00080E060E00E94A200789410E080916100BE
:1000F0008130E1F710926100182787E0612F0E949C
:100100003D010E94CE01F2CF1DBC1CBC82EA8FBD16
:1001100081E18EBD8FEF90E097BD86BD1BBC1ABC00
:1001200019BC18BC89B7837C89BF85B5846085BD3F
:1001300014BC89B7806489BF84B38C6084BBAA9ADD
:10014000AB980895843614F084E603C08C390CF41F
:100150008CE980936200643614F064E603C06C3965
:100160000CF46CE96093630081E090E00895282F1F
:10017000862F8C59893C20F5822F8C59893C00F5BB
:1001800084B38C6084BB121614F4AA9802C0AA9A95
:100190002195161614F4AB9802C0AB9A6195862F80
:1001A000992787FD9095880F991F8ABD822F9927DF
:1001B00087FD9095880F991F88BD21E030E002C02F
:1001C00020E030E0C90108951F920F920FB60F9200
:1001D00011242F933F934F935F936F937F938F934C
:1001E0009F93AF93BF93EF93FF939091640080919F
:1001F0006200981724F4809164008F5F09C0909189
:1002000064008091620089172CF480916400815011
:10021000809364009091650080916300981724F4A6
:10022000809165008F5F09C09091650080916300A7
:1002300089172CF48091650081508093650080912E
:100240006400609165000E94B700FF91EF91BF913B
:10025000AF919F918F917F916F915F914F913F915E
:100260002F910F900FBE0F901F90189584B3806749
:1002700084BB87B3836987BB08956295607F682BD1
:10028000673071F1683070F4633011F1643028F434
:100290006130D1F0623099F519C06530E9F066300F
:1002A000E8F418C0643121F1653138F46231E1F0CD
:1002B0006331E0F4613119F515C06631E9F066315A
:1002C000C8F06731E1F41AC0AC980895AD9808956C
:1002D000AE980895C7980895C1980895C098089554
:1002E000C4980895AC9A0895AD9A0895AE9A089569
:1002F000C79A0895C19A0895C09A0895C49A089516
:1003000037B328B3B898C0988AE18A95F1F7B09BC3
:1003100008C080917100982F969590959170826099
:1003200007C080917100982F9695909591708D7F60
:100330008093710037BB28BB892F089534B325B350
:10034000A698AE988AE18A95F1F79E9B07C08091A6
:100350007100982F90959170816006C08091710016
:10036000982F909591708E7F8093710034BB25BB40
:10037000892F08953E9A329A379A87B1876087B954
:1003800086B1806586B9349BFECF84B195B16AE0B1
:1003900070E00E944B036093740008950E949E01D8
:1003A0000E9480010E94BA010895CF93DF93C0E0BC
:1003B000D0E06091790070E00C2E02C075956795D1
:1003C0000A94E2F761709E012F5F822F0E943D0127
:1003D0002196C630D10569F7809177006091780049
:1003E0000E94A200DF91CF91089511B890E290B9D8
:1003F000816082B985EC86BF10927B00089524E667
:1004000040ED57E006C0222341F02150CA01019778
:10041000F1F780917B008823B1F708951F93182F7F
:100420000E94FF018AEA80937A0010927C00109368
:100430007D0081E080937B0085EE86BF1F9108954B
:100440001F93182F0E94FF018BEA80937A0010926D
:100450007C0010937D0081E080937B0085EE86BF59
:100460001F91089585EC86BF089585ED86BF109293
:100470007B0008950E94D50108951F920F920FB638
:100480000F9211242F933F934F935F936F937F931A
:100490008F939F93AF93BF93EF93FF9381B190E0BE
:1004A000887F90708836910509F463C0893691057C
:1004B0007CF58833910509F4CBC0893391059CF410
:1004C0008031910509F48DC08131910524F408979C
:1004D00009F0CCC07DC08831910509F48AC08897A5
:1004E00009F0C4C08AC08035910509F49EC08135E9
:1004F00091052CF48034910509F0B8C0A9C0883565
:10050000910509F4A8C08036910509F0AFC031C04B
:10051000803A910509F44BC0813A91059CF48837E3
:10052000910539F1893791052CF48037910509F04F
:100530009DC01FC08038910521F18039910509F0D7
:1005400095C01FC0883B9105C9F1893B910544F4D2
:10055000883A910599F1803B910509F087C02EC03A
:10056000803C910509F474C0883C910509F07EC077
:100570006FC091E090937B0085EC86BF90936600FE
:1005800079C080916600882331F083B18093670041
:10059000109266005DC08091670093B1E82FF0E093
:1005A000E958FF4F90838F5F8093670051C010928E
:1005B0007B0085EC86BF0E94D5015CC081E0809302
:1005C0007B0090916700E92FF0E0EF58FF4F27C0C4
:1005D00081E080937B001092670080917A008E7F8B
:1005E0000AC080917A0083B985EC86BF10926700BB
:1005F00041C080917C0083B92BC080917A0080FF3C
:1006000002C085EE26C09091670080917D0098170A
:1006100068F590916700E92FF0E0E958FF4F80817D
:1006200083B99F5F9093670013C08091670093B177
:10063000E82FF0E0EF58FF4F90838F5F80936700C3
:100640009091670080917D00981710F085E801C0B7
:1006500085EC86BF0FC08091670093B1E82FF0E072
:10066000EF58FF4F90838F5F8093670085ED86BFC3
:1006700010927B00FF91EF91BF91AF919F918F916D
:100680007F916F915F914F913F912F910F900FBE8E
:100690000F901F901895AA1BBB1B51E107C0AA1F02
:1006A000BB1FA617B70710F0A61BB70B881F991F13
:1006B0005A95A9F780959095BC01CD010895F894BD
:0206C000FFCF6A
:00000001FF
