:100000000C942A000C943C000C943C000C943C0092
:100010000C943C000C943C000C943C000C949B0011
:100020000C94A5000C943C000C943C000C944800EB
:100030000C943C000C943C000C943C000C943C0050
:100040000C943C000C943C000C943C000C94E60195
:100050000C943C0011241FBECFE5D8E0DEBFCDBF1D
:1000600010E0A0E6B0E001C01D92AA37B107E1F7A9
:100070000E9465000C9408030C94000083B785600F
:1000800083BF12BE89B7816089BF10926100089555
:100090001F920F920FB60F9211248F9380916000E0
:1000A0008F5F8093600080916000813019F48AE74F
:1000B00082BF05C081E080936100109260008F9143
:1000C0000F900FBE0F901F9018951F93F8940E94E9
:1000D000DC000E9484008AEA0E949E010E943E0089
:1000E00080E060E00E94AF00789410E080916100B1
:1000F0008130E1F710926100182787E0612F0E949C
:10010000E3000E947701F2CF1DBC1CBC82EA8FBDC8
:1001100081E18EBD8FEF90E097BD86BD1BBC1ABC00
:1001200019BC18BC89B7837C89BF84B38C6084BB3D
:10013000AA9AAB9808951F920F920FB60F921124AE
:100140000F900FBE0F901F9018951F920F920FB631
:100150000F9211240F900FBE0F901F901895282F0B
:10016000862F8C59893C20F5822F8C59893C00F5CB
:1001700084B38C6084BB121614F4AA9802C0AA9AA5
:100180002195161614F4AB9802C0AB9A6195862F90
:10019000992787FD9095880F991F8ABD822F9927EF
:1001A00087FD9095880F991F88BD21E030E002C03F
:1001B00020E030E0C901089584B3806784BB87B331
:1001C000836987BB08956295607F682B673071F102
:1001D000683070F4633011F1643028F46130D1F08C
:1001E000623099F519C06530E9F06630E8F418C05E
:1001F000643121F1653138F46231E1F06331E0F4CA
:10020000613119F515C06631E9F06631C8F0673122
:10021000E1F41AC0AC980895AD980895AE98089589
:10022000C7980895C1980895C0980895C4980895EE
:10023000AC9A0895AD9A0895AE9A0895C79A089514
:10024000C19A0895C09A0895C49A089537B328B3FF
:10025000B898C0988AE18A95F1F7B09B08C0809160
:100260006D00982F969590959170826007C080914F
:100270006D00982F9695909591708D7F80936D006D
:1002800037BB28BB892F089534B325B3A698AE9801
:100290008AE18A95F1F79E9B07C080916D00982FA7
:1002A00090959170816006C080916D00982F909517
:1002B00091708E7F80936D0034BB25BB892F08958C
:1002C0001092720008953E9A329A379A87B18760E9
:1002D00087B986B1806586B9349BFECF84B195B16C
:1002E0006AE070E00E94F4026093700008950E943A
:1002F00044010E9426010E9463010895CF93DF9379
:10030000C0E0D0E06091750070E00C2E02C07595E1
:1003100067950A94E2F761709E012F5F822F0E9419
:10032000E3002196C630D10569F780917300609192
:1003300074000E94AF00DF91CF91089511B890E250
:1003400090B9816082B985EC86BF109277000895DC
:1003500024E640ED57E006C0222341F02150CA01B7
:100360000197F1F7809177008823B1F708951F93E3
:10037000182F0E94A8018AEA8093760010927800D4
:100380001093790081E08093770085EE86BF1F91FE
:1003900008951F93182F0E94A8018BEA809376007E
:1003A000109278001093790081E08093770085EEB9
:1003B00086BF1F91089585EC86BF089585ED86BFA1
:1003C0001092770008950E947E0108951F920F9267
:1003D0000FB60F9211242F933F934F935F936F9318
:1003E0007F938F939F93AF93BF93EF93FF9381B1CD
:1003F00090E0887F90708836910509F463C0893653
:1004000091057CF58833910509F4CBC089339105BA
:100410009CF48031910509F48DC08131910524F45B
:10042000089709F0CCC07DC08831910509F48AC0D5
:10043000889709F0C4C08AC08035910509F49EC030
:10044000813591052CF48034910509F0B8C0A9C01C
:100450008835910509F4A8C08036910509F0AFC030
:1004600031C0803A910509F44BC0813A91059CF462
:100470008837910539F1893791052CF4803791053A
:1004800009F09DC01FC08038910521F18039910588
:1004900009F095C01FC0883B9105C9F1893B9105C2
:1004A00044F4883A910599F1803B910509F087C0A1
:1004B0002EC0803C910509F474C0883C910509F078
:1004C0007EC06FC091E09093770085EC86BF9093DB
:1004D000620079C080916200882331F083B18093FB
:1004E0006300109262005DC08091630093B1E82FB9
:1004F000F0E0ED58FF4F90838F5F8093630051C011
:100500001092770085EC86BF0E947E015CC081E07E
:100510008093770090916300E92FF0E0E359FF4F5B
:1005200027C081E08093770010926300809176006D
:100530008E7F0AC08091760083B985EC86BF1092C9
:10054000630041C08091780083B92BC08091760010
:1005500080FF02C085EE26C09091630080917900F3
:10056000981768F590916300E92FF0E0ED58FF4F80
:10057000808183B99F5F9093630013C08091630073
:1005800093B1E82FF0E0E359FF4F90838F5F8093A2
:1005900063009091630080917900981710F085E8CE
:1005A00001C085EC86BF0FC08091630093B1E82F36
:1005B000F0E0E359FF4F90838F5F8093630085EDF8
:1005C00086BF10927700FF91EF91BF91AF919F91FD
:1005D0008F917F916F915F914F913F912F910F90EC
:1005E0000FBE0F901F901895AA1BBB1B51E107C0AF
:1005F000AA1FBB1FA617B70710F0A61BB70B881FB3
:10060000991F5A95A9F780959095BC01CD01089541
:04061000F894FFCF8C
:00000001FF
